:020000040000FA
:10000000A8FEFF1FB9010000C1010000C3010000EC
:1000100000000000000000000000000000000000E0
:10002000000000000000000000000000C50100000A
:100030000000000000000000C7010000C90100002E
:10004000CB010000CB010000CB010000CB01000080
:10005000CB010000CB010000CB010000CB01000070
:10006000CB010000CB010000CB010000CB01000060
:10007000CB010000CB010000CB010000CB01000050
:10008000CB010000CB010000CB010000CB01000040
:10009000CB010000CB010000CB010000CB01000030
:1000A000CB010000CB010000CB010000CB01000020
:1000B000CB010000CB010000A90A0000CB01000029
:1000C00000F002F800F04DF80CA030C808382418F1
:1000D0002D18A246671EAB4654465D46AC4201D180
:1000E00000F03FF87E460F3E0FCCB6460126334265
:1000F00000D0FB1AA246AB4633431847D814000081
:10010000F8140000103A02D378C878C1FAD8520720
:1001100001D330C830C101D504680C6070470000BD
:100120000023002400250026103A01D378C1FBD813
:10013000520700D330C100D50B60704710B5642959
:1001400002D100F0B7F810BD632902D100F032F9F6
:1001500010BD002010BD1FB500F0F8F81FBD10B590
:1001600010BD00F0F6FA1146FFF7F5FF00F096FF1C
:1001700000F00EFB03B4FFF7F2FF03BC00F010FB2E
:1001800030B40C490C684A6823681068C0181060C5
:10019000241D121D8C4207D28A4208D20C604A608C
:1001A00030BC4000400870470C00DC3CF6E70A0019
:1001B000DC3AF3E740FDFF1F074880470748004748
:1001C000FEE7FEE7FEE7FEE7FEE7FEE70448054937
:1001D000034A054B70470000310F0000C1000000CA
:1001E000A8FDFF1FA8FEFF1FA8FDFF1F0FB41CB531
:1001F000074B06AA7B4469460090059800F0B7F8C3
:100200000020694600F0C6F81CBC08BC04B01847C2
:100210009D01000070B5044685690068C10601D5DE
:10022000302600E02026C00707D070BD6268304647
:10023000A1689047206A401C20626D1EF6D570BDF3
:1002400070B5044685690078C00707D170BD626843
:10025000A16820209047206A401C20626D1EF6D5C0
:1002600070BD70B50C460546012A05D02878800679
:1002700000D5EA69002302E0012305E05B1C9342FC
:1002800002D2E05C0028F9D1A869E618C01AA8617A
:10029000286AC01828622846FFF7BCFF04E06A6895
:1002A0002078A968641C9047B442F8D32846FFF729
:1002B000C7FF70BDF7B5002575291068009914A611
:1002C00011D0C046C046002802DA404211A608E01C
:1002D000009909688A0701D50FA602E0490704D5ED
:1002E0000EA6012501E0C046C046009F0024243729
:1002F00004E000F06BF830313955641C0028F8D167
:100300002B4632462146009800F0CBF9FEBD000096
:10031000000000002D0000002B0000002000000065
:100320000B4A30B511460B4C60310B46DC3B0CC11F
:10033000372106E0020C8D0012185A51064A50432C
:1003400000190A46491E002AF4DC30BD0120E7E707
:10035000E0FCFF1FE119D666CD0D01007047704724
:100360007047000001694A1C02610878704700B5B7
:100370008FB00291002105910549019379440391C1
:1003800011460490684600F043F80FB000BD00002D
:10039000E5FFFFFF0A681070521C0A60704710B535
:1003A0004369002B02D0C046C04601E0FFF759FF69
:1003B000012010BD1278014624310A7000224A70D3
:1003C0000122ECE711680022D243E8E701468008E9
:1003D000081A02091018020A1018020C1018C00896
:1003E000820012185200891A01E0401C0A390A29B9
:1003F000FBD270470048704748FDFF1F7047000060
:10040000FFFFFFFFFFFFFFFFFFFFFFFFFEFFFFFFFD
:10041000F3B50446002081B020622046E168884799
:1004200000287DD0252802D06268A16883E0454F6E
:1004300000257F442046E16888472028064608DBDF
:10044000312E06D2B81920380078002801D0054393
:10045000F0E7A80701D5042085430020E0610746A6
:10046000A0612A2E0AD0304600F090FD002827D047
:10047000B8000019303E0090866119E00298BA0079
:10048000121902C8916102902046E1688847012F45
:10049000064617D1E06900281FDA202085431CE0BA
:1004A00000980A2180694843009980193038886192
:1004B0002046E1688847064600F068FD0028EFD135
:1004C000012F0AD02E2E08D12046E1688847064623
:1004D000202005437F1C022FC3DBA069002803DA1C
:1004E0004042A06101200543E80701D01020854368
:1004F000002E24D030464138192803D80120C002EC
:1005000005432036204625603146029A1546FFF7FE
:1005100015FE00280CD0012807D0ED1DE80800E0EA
:100520000DE0C0000830029077E72D1D029574E7BA
:1005300062683046A1689047206A401C6CE7206AD8
:10054000FEBD00008A110000002203098B422CD35B
:10055000030A8B4211D300239C464EE003460B4313
:100560003CD4002243088B4231D303098B421CD375
:10057000030A8B4201D394463FE0C3098B4201D367
:10058000CB01C01A524183098B4201D38B01C01A9F
:10059000524143098B4201D34B01C01A5241030916
:1005A0008B4201D30B01C01A5241C3088B4201D3C5
:1005B000CB00C01A524183088B4201D38B00C01A72
:1005C000524143088B4201D34B00C01A5241411A99
:1005D00000D201465241104670475DE0CA0F00D07C
:1005E0004942031000D34042534000229C46030975
:1005F0008B422DD3030A8B4212D3FC22890112BAFB
:10060000030A8B420CD3890192118B4208D38901D2
:1006100092118B4204D389013AD0921100E08909EA
:10062000C3098B4201D3CB01C01A524183098B42CB
:1006300001D38B01C01A524143098B4201D34B01B4
:10064000C01A524103098B4201D30B01C01A524117
:10065000C3088B4201D3CB00C01A524183088B429E
:1006600001D38B00C01A5241D9D243088B4201D327
:100670004B00C01A5241411A00D201466346524112
:100680005B10104601D34042002B00D54942704711
:1006900063465B1000D3404201B50020C046C0460F
:1006A00002BDFFB504460D4681B02430009021689C
:1006B000880604D51022E0699143216000E0012002
:1006C000A84201DD471B00E000270498A1697A19C0
:1006D0001018081AA0612078C00602D42046FFF73F
:1006E00099FD002608E003986268A168805D904744
:1006F000206A401C761C206204988642F3DB207836
:10070000C0060AD52046FFF785FD06E06268A168AD
:1007100030209047206A401C206238467F1E002807
:10072000F4DC07E000986268A168405D9047206AA9
:10073000401C206228466D1E0028F3DC2046FFF78F
:100740007FFD2078000602D5022005B0F0BD012013
:10075000FBE77546FFF74EFEAE4605006946534679
:10076000C008C000854618B020B5FFF72FFD60BC5B
:1007700000274908B6460026C0C5C0C5C0C5C0C5CB
:10078000C0C5C0C5C0C5C0C5403D49008D46704705
:1007900010B50446C046C0462046FFF7EBFC10BD2E
:1007A00001491820ABBEFEE7260002001548406B49
:1007B00040210843134948630846806B09150843E4
:1007C000104988631048C068491508430E49C8603D
:1007D00008460069491508430B4908610B488078B1
:1007E00080218843094988700846407840210843A1
:1007F0000649487008464078192108430349487063
:10080000704700000080044000A0044000600640E3
:1008100000B502460B4600200C49087000F0D2FBE0
:1008200000F0F4FB00F0D8FB5106080E00F0E8FBE6
:1008300000F0F6FB184600F0E3FB00F0F1FB00F0DF
:10084000D5FB00F0B5FB0148007800BD00FCFF1FA0
:100850001B48806B012149020843194988631948E4
:10086000406A89150843174948620846806A891515
:100870000843144988620846C06A8915084311492B
:10088000C8620846006B891508430E49086308468C
:10089000406A032108430B4948620846806A0321E5
:1008A0000843084988620846C06A0321084305498D
:1008B000C8620846006B0321084302490863704779
:1008C00000800440009004401648806A05214904D5
:1008D0000843144988620846C06A05214904084350
:1008E0001049C8620846006B0521490408430D49B8
:1008F00008631E20002805DBC206D20E01219140AC
:10090000094A116000BF1E20002809DB00BF00BF9C
:10091000C206D20E01219140044A116000BF00BFFF
:1009200000BF70470090044080E200E000E100E07A
:1009300010B5044602480470002000F0A1F810BD74
:1009400005FCFF1F10B500212720FFF761FF0221E2
:100950000840002802D127200649087000213F20C6
:10096000FFF756FF02210840002802D13F2001492D
:10097000087010BD06FCFF1F10B50021012000F01B
:1009800071F810BD10B5FFF711FFFFF7DBFF002076
:1009900001E000BF401C0E498842FAD300213320F9
:1009A00000F060F80021322000F05CF800212820DF
:1009B00000F058F80021082000F054F80021012030
:1009C00000F050F800210C2000F04CF810BD0000A1
:1009D000A068060070B50446002505E0605D0121B1
:1009E00000F040F8681CC5B2605D0028F6D170BD0B
:1009F00070B504460D46012D00DD0125272C00DDD4
:100A00002724A901091980221143C8B2002100F04E
:100A100029F870BD70B504460D462101F022114041
:100A2000002D01D0012200E00022114304220846DB
:100A3000104300F025F82101F0221140002D01D0D3
:100A4000012200E000220846104300F019F80020BF
:100A500001E000BF401C02498842FAD370BD00008B
:100A6000204E000070B504460D462106080F2946A9
:100A7000FFF7D0FF2007000F2946FFF7CBFF70BD1F
:100A800010B5044606480078002801D0082000E090
:100A900000200146214303480078FFF7B9FE10BD4E
:100AA00005FCFF1F06FCFF1F70B5FE48006A07210A
:100AB00089020840044601208002201A07D0012143
:100AC0008902401A50D04900401A7DD1C6E1002069
:100AD00001E000BF401CF4498842FAD3F3480069A2
:100AE00001218902084000283DD1F04800690840F2
:100AF000002838D1EE480078002834D1ED4800783D
:100B0000142804D1EC480078EA4908702BE0EB483F
:100B10000078142804D1E8480078E849087022E0F9
:100B2000E7480078142804D1E3480078E4490870C5
:100B300019E0E4480078142804D1DF480078E1493E
:100B4000087010E0E0480078142804D1DA480078F2
:100B5000DD49087007E0DD480078142803D1D64845
:100B60000078DA490870C9E1002001E000BF401CAC
:100B7000CD498842FAD3CD4800690121C902084015
:100B800000286FD1C948006908400028F9D1D04831
:100B900000780028F5D1CF480078002863D1FFF70E
:100BA000EFFA05460621FFF7D9FCC8B2CA4908701A
:100BB00008460078401C0870FFF7E2FA0546062157
:100BC000FFF7CCFCC8B200E097E1C44908700846C2
:100BD0000078401C0870FFF7D3FA05460621FFF79E
:100BE000BDFCC8B2BE49087008460078401C0870B9
:100BF000FFF7C6FA05460621FFF7B0FCC8B2B949AF
:100C0000087008460078401C0870FFF7B9FA0546DE
:100C10000621FFF7A3FCC8B2B34908700846007864
:100C2000401C0870FFF7ACFA05460621FFF796FC5A
:100C3000C8B2AE49087008460078401C0870A54844
:100C40000078401CA349087014209A4908709B49F9
:100C500008709B4908709B4908709B4908709B4924
:100C60000870F7E0F9E09B480078401C994908704B
:100C700090480078002813D09048007800280FD0C2
:100C80008F48007800280BD08E480078002807D0C5
:100C90008D480078002803D08C48007800280CD1BB
:100CA000FFF76EFA05460621FFF758FCC8B28A49DD
:100CB000087008460078401C08707E4800780228BA
:100CC00013D07E48007802280FD07D480078022893
:100CD0000BD07C480078022807D07B480078022897
:100CE00003D07A48007802280CD1FFF749FA05466C
:100CF0000621FFF733FCC8B278490870084600782F
:100D0000401C08706B480078042813D06B480078AA
:100D100004280FD06A48007804280BD0694800786E
:100D2000042807D068480078042803D06748007872
:100D300004280CD1FFF724FA05460621FFF70EFC24
:100D4000C8B26749087008460078401C08705948C6
:100D50000078062813D05948007806280FD0584844
:100D6000007806280BD057480078062807D0564848
:100D70000078062803D05548007806280CD1FFF7E4
:100D8000FFF905460621FFF7E9FBC8B2554908708F
:100D900008460078401C087046480078082813D0A0
:100DA0004648007808280FD04548007808280BD01E
:100DB00044480078082807D043480078082803D022
:100DC0004248007808280CD1FFF7DAF905460621D9
:100DD000FFF7C4FBC8B24449087008460078401CBD
:100DE0000870344800780A2813D0344800780A285C
:100DF0000FD0334800780A280BD0324800780A28F0
:100E000007D0314800780A2803D0304800780A28F3
:100E10000CD1FFF7B5F905460621FFF79FFBC8B2D5
:100E20003249087008460078401C0870294800784C
:100E3000022802DD00202749087014201D4908708F
:100E40001E4908701E4908701E4908701E49087026
:100E50001E49087001201E4908704FE0002001E083
:100E600000BF401C10498842FAD32148007800286E
:100E700042D10E48006901210903084000283BD1F6
:100E80000A4800690840002836D10B480078401C09
:100E900009490870084600780A2801DD002008701A
:100EA000012027E080900440A086010000F00F4060
:100EB00050FCFF1F5AFCFF1F59FCFF1F5BFCFF1F6C
:100EC0005CFCFF1F5DFCFF1F5EFCFF1F5FFCFF1F44
:100ED00051FCFF1F60FCFF1F53FCFF1F54FCFF1F52
:100EE00055FCFF1F56FCFF1F57FCFF1F58FCFF1F40
:100EF00052FCFF1F0B49087000E000BF00BF0A480A
:100F0000006A072189020843074908621E20002859
:100F100005DBC206D20E01219140044A116000BFD8
:100F200070BD000052FCFF1F8090044080E200E092
:100F3000002013490860012000041149C0394860AD
:100F4000062010490870002048700846C0788006C6
:100F5000800E202108430B49C87080200A49087080
:100F600000BF08488079102108400028F9D000BF50
:100F7000044880790C2108400028F9D1704700000E
:100F800000810440004006400050064030380A28E6
:100F900001D2012070470020704700000348C0784C
:100FA000022108430149C8707047000000600640F4
:100FB0000348807880218843014988707047000089
:100FC000006006400348807880210843014988700A
:100FD00070470000006006400348807820210843E5
:100FE000014988707047000000600640034880781F
:100FF0002021884301498870704700000060064046
:10100000014908717047000000600640034880787D
:1010100010210843014988707047000000600640B5
:1010200000B500201949088004E018480088401CD9
:10103000164908801648C07802210840002805D0CB
:101040001348C07880210840002804D10F48008848
:1010500010498842E9DB0D4800880E49884205DBCB
:101060000D480078012108430B4908700848C078F2
:10107000C007C00F002805D00748007802210843A8
:1010800005490870FFF78AFF00BD000002FCFF1F42
:10109000006006401027000000FCFF1F1FB5FDA3E5
:1010A0000FCB6C460FC4FFF7D3FBFFF70DFCFFF728
:1010B00069FC0120FFF73CFCFFF75EFCF9A0FFF79D
:1010C00089FC01210020FFF793FCF9A0FFF782FCC7
:1010D00000BFFB4800690121490208400028F8D1FF
:1010E000FFF74AFCF7A0FFF775FC01210020FFF78E
:1010F0007FFCF7A0FFF76EFC00BFF14800690121FB
:10110000490208400028F8D1FFF736FCF4A0FFF7A9
:1011100061FC01210020FFF76BFCF4A0FFF75AFCF3
:1011200000BFE74800690121490208400028F8D1C2
:10113000FFF722FCF1A0FFF74DFC01210020FFF793
:1011400057FCF1A0FFF746FC00BFDD480069012114
:10115000490208400028F8D1FFF70EFCEDA0FFF788
:1011600039FC01210020FFF743FCEEA0FFF732FC21
:1011700000BFD34800690121490208400028F8D186
:10118000FFF7FAFBECA0FFF725FC01210020FFF799
:101190002FFCEDA0FFF71EFC00BFC948006901212C
:1011A000490208400028F8D1FFF7E6FBEBA0FFF763
:1011B00011FC01210020FFF71BFCEAA0FFF70AFC4D
:1011C00000BFBF4800690121490208400028F8D14A
:1011D000FFF7D2FB00210846FFF70AFCE54802783A
:1011E000E5A16846FFF702F86846FFF7F3FB002128
:1011F0000220FFF7FDFBE2480278DFA16846FEF718
:10120000F5FF6846FFF7E6FB00210420FFF7F0FB3F
:10121000DC480278D8A16846FEF7E8FF6846FFF789
:10122000D9FB00210620FFF7E3FBD7480278D2A1C3
:101230006846FEF7DBFF6846FFF7CCFB002108207D
:10124000FFF7D6FBD1480278CBA16846FEF7CEFF68
:101250006846FFF7BFFB00210A20FFF7C9FBCC4817
:101260000278C5A16846FEF7C1FF6846FFF7B2FBEA
:101270000FE1C8480078002802D00020C549087056
:10128000C5480078002852D0FFF776FB00210846B9
:10129000FFF7AEFBB7480278B7A16846FEF7A6FF96
:1012A0006846FFF797FB00210220FFF7A1FBB44837
:1012B0000278B1A16846FEF799FF6846FFF78AFBFE
:1012C00000210420FFF794FBAE480278AAA16846EB
:1012D000FEF78CFF6846FFF77DFB00210620FFF735
:1012E00087FBA9480278A4A16846FEF77FFF6846FD
:1012F000FFF770FB00210820FFF77AFBA348027874
:101300009DA16846FEF772FF6846FFF763FB002168
:101310000A20FFF76DFB9E48027897A16846FEF70A
:1013200065FF6846FFF756FB00209B4908709B4805
:10133000007800289CD0FFF71FFB00210846FFF72C
:1013400057FB8C4802788CA16846FEF74FFF684631
:10135000FFF740FB00210220FFF74AFB8848027894
:1013600085A16846FEF742FF6846FFF733FB002180
:101370000420FFF73DFB834802787FA16846FEF713
:1013800035FF6846FFF726FB00210620FFF730FBFC
:101390007D48027878A16846FEF728FF6846FFF787
:1013A00019FB00210820FFF723FB7848027872A17F
:1013B0006846FEF71BFF6846FFF70CFB00210A207A
:1013C000FFF716FB724802786BA16846FEF70EFF26
:1013D0006846FFF7FFFA012171480078FFF708FB24
:1013E0005E2270A16846FEF701FF6846FFF7F2FA39
:1013F00001216D480078FFF7FBFA5E2269A168467B
:10140000FEF7F4FE6846FFF7E5FA01216748007829
:10141000FFF7EEFA5E2263A16846FEF7E7FE684634
:10142000FFF7D8FA012162480078FFF7E1FA5E225F
:101430005CA16846FEF7DAFE6846FFF7CBFA0121A9
:101440005C480078FFF7D4FA5E2256A16846FEF7A2
:10145000CDFE6846FFF7BEFA012157480078FFF736
:10146000C7FA5E224FA16846FEF7C0FE6846FFF746
:10147000B1FA012151480078FFF7BAFA5E2249A17A
:101480006846FEF7B3FE6846FFF7A4FA002043491A
:101490000870EEE620202020202020202020202080
:1014A00020202020576369736E696A207331000021
:1014B000616279206B6F6E74796E756F776163000E
:1014C00000F00F40576369736E696A207333000040
:1014D0006162792077796C6F736F776163000000C8
:1014E000576369736E696A20733400006162792002
:1014F00077796269657261632E2E2E006C69637A5A
:10150000627920646F0000006F64727A7563656EA3
:1015100069610000576369736E696A205332206104
:10152000627900007A617477696572647A69632010
:101530007779626F72000000576369736E696A2081
:10154000733320616279000077796D69656E696334
:101550002077796272616E65000000004C69637AE1
:10156000627900004D696C656A205A616261777921
:101570000000000053FCFF1F253031640000000014
:1015800054FCFF1F55FCFF1F56FCFF1F57FCFF1F9D
:1015900058FCFF1F50FCFF1F51FCFF1F52FCFF1F98
:1015A00059FCFF1F256300005AFCFF1F5BFCFF1F57
:1015B0005CFCFF1F5DFCFF1F5EFCFF1F5FFCFF1F4D
:1015C000040000080000000000000002000100000C
:1015D00010000000F415000000FCFF1F6400000074
:1015E000040100005816000064FCFF1F44020000C4
:1015F000200100000000000000012700000E010F84
:10160000110F0102040E1010110E0000000E111F28
:10161000100E020C0406040C040E0002041619112C
:1016200011110002040E1111110E0002040E100E11
:10163000011E0004001F0204081F0002041F020410
:10164000081F00000000000000000000000014144B
:08165000141414140000000042
:04000005000000C136
:00000001FF
